:1000000045C00000C7C000002CC100005DC000005A
:100010005BC0000059C0000057C0000055C0000080
:1000200053C0000051C000004FC000004DC0000090
:100030004BC0000049C0000047C0000045C00000A0
:1000400055C0000041C000003FC000003DC000009E
:100050003BC0000039C0000037C0000035C00000C0
:1000600033C0000031C000002FC000002DC00000D0
:100070002BC0000029C0000027C0000025C00000E0
:1000800023C0000021C000001FC0000011241FBEBB
:10009000CFEFD0E1DEBFCDBF1CE0A0E0B1E0E4E3F4
:1000A000FBE100E00BBF02C007900D92A03AB10740
:1000B000D9F720E1A0EABCE001C01D92A33CB20741
:1000C000E1F7CFD60C94980D9BCF87E783BF12BE84
:1000D00080E88FBF81E087BF089588E080936A0041
:1000E00083E089BF8FB780688FBF08951F920F92FA
:1000F0000FB60F9211242F933F938F939F9380916C
:10010000BA0C9091BB0C01969093BB0C8093BA0CE7
:100110002091AB0C3091AC0C2F5F3F4F3093AC0C67
:100120002093AB0C2C31310571F42091A90C309146
:10013000AA0C2F5F3F4F3093AA0C2093A90C10926A
:10014000AC0C1092AB0C2091A40C213051F42091F6
:10015000A00C3091A10C2F5F3F4F3093A10C209346
:10016000A00C8739910520F01092BB0C1092BA0CAC
:100170008091A60C9091A70C01969093A70C809368
:10018000A60C9F918F913F912F910F900FBE0F90D2
:100190001F9018951F920F920FB60F9211240BB655
:1001A0000F922F933F934F935F936F937F938F9310
:1001B0009F93AF93BF93EF93FF938091AD0C811109
:1001C00004C082E08093AD0C39C0813009F036C0A4
:1001D000A6D70E94790945E15BE060E080E0FDD7A9
:1001E00040E25BE060E081E0F8D741E35BE060E0A3
:1001F00082E0F3D74CE35BE060E083E0EED745E4D8
:100200005BE060E084E0E9D742E55BE060E085E048
:10021000E4D74BE55BE060E086E0DFD749E65BE0F2
:1002200060E087E0DAD72FEF8FEF90EE215080402B
:100230009040E1F700C000001092AD0CFF91EF91EB
:10024000BF91AF919F918F917F916F915F914F91EE
:100250003F912F910F900BBE0F900FBE0F901F90EC
:1002600018951F920F920FB60F9211242F933F9360
:100270005F936F937F938F939F93AF93BF93F89404
:100280008091AF0C9091B00C01969093B00C80933C
:10029000AF0C2091A80C30E0B901660F771F220F38
:1002A000331F220F331F220F331F620F731F0E9451
:1002B000620D6630710528F47093B20C6093B10C36
:1002C00006C086E090E09093B20C8093B10C8FEF63
:1002D0009FE80197F1F700C000007894BF91AF91BB
:1002E0009F918F917F916F915F913F912F910F908F
:1002F0000FBE0F901F9018951BBA8FEF8ABB88BB5B
:1003000087BB15BA90EF94BB90E892BB91BB13B832
:1003100082B910926200109261000895F894ECDFA7
:100320008DD60FD7DADE789408958091A80C8F5F70
:100330008093A80CF4D64CE75BE066E083E04DD7F1
:100340006BE083E007D78091A80C0E944D0B2FEF44
:100350008FEF96E8215080409040E1F700C0000008
:1003600008958091A00C9091A10C2091A20C309145
:10037000A30C2817390720F49093A30C8093A20CA8
:10038000CED642E85BE060E082E027D76AE082E018
:10039000E1D68091A20C9091A30C0E94700B4FE8C3
:1003A0005BE060E084E019D76AE084E0D3D6809116
:1003B000A00C9091A10C0C94700B0895B0D6809174
:1003C000A50C811106C04CE95BE065E083E005D730
:1003D00073C046EA5BE067E083E0FFD62FEF8FEF64
:1003E00096E8215080409040E1F700C0000097D689
:1003F00080D74DEA5BE060E083E0EFD64CEB5BE05A
:1004000060E084E0EAD62FEF8FEF96E8215080403D
:100410009040E1F700C0000082D641E35BE064E079
:1004200083E0DBD62FEF8FEF93EB2150804090409D
:10043000E1F700C0000073D645E45BE064E083E0D0
:10044000CCD62FEF8FEF93EB215080409040E1F717
:1004500000C0000064D64FEC5BE064E082E0BDD6F3
:100460004BED5BE064E083E0B8D62FEF8FEF90EECA
:10047000215080409040E1F700C0000050D648EE87
:100480005BE065E083E0A9D62FEF8FEF96E821507F
:1004900080409040E1F700C0000041D64CE95BE0AD
:1004A00065E083E09AD62FEF8FEF99E521508040E9
:1004B0009040E1F700C000002FEF8FEF93EB215049
:1004C00080409040E1F700C000004BCF0895DC0170
:1004D0008C9190E0DA011196EC91F0E0DC011A9732
:1004E000EA17FB070CF443C00A968E179F070CF41B
:1004F0003EC0FB01808190E0DA014C9150E0BC01EC
:100500006A5071094617570794F10A9684179507A0
:1005100074F130E0F901E954F34F808181112CC06E
:1005200081E0F901E954F34F80838091AE0C823071
:1005300090F081508093AE0C20E840E460E080E0D1
:1005400090D7BFEFEFE7F4E0B150E040F040E1F7C3
:1005500000C00000089585E08093AD0C1092A50CBA
:100560001092A40CF901E954F34F10820895E22F80
:10057000F0E0E954F34F108208952F923F924F928A
:100580005F926F927F928F929F92AF92BF92CF9223
:10059000DF92EF92FF920F931F93CF93DF93CDB72C
:1005A000DEB72A970FB6F894DEBF0FBECDBF542E2C
:1005B000402F50E05A834983141615060CF054C09E
:1005C000269526952695E22FF0E0FC83EB83FE83AB
:1005D000ED83C82ED92EA12CB12CAF0158874F83A3
:1005E000262E88248394912C0F2EF7E03F2EF02D99
:1005F000412C53948B819C81181619064CF5EF8081
:10060000F884EC0CFD1C8601722C6894662463F857
:10061000670C39864A86F8012081C401098402C02A
:10062000880F991F0A94E2F7822319F0672D852D10
:1006300000D6739449855A85415051095A87498794
:100640007610E9CF0F5F1F4F762CE016F106E9F622
:100650005FEFA51AB50A8D819E81C80ED91EE9816A
:10066000FA81AE16BF0629F62A960FB6F894DEBFB9
:100670000FBECDBFDF91CF911F910F91FF90EF90F3
:10068000DF90CF90BF90AF909F908F907F906F90B2
:100690005F904F903F902F900895EF92FF920F93AD
:1006A000CF93DF93DC0130E0F901E454F34F908104
:1006B000911108C08091BA0C9091BB0CA817B90792
:1006C00008F03FC07A01EB01F901E454F34F81E0F7
:1006D0008083FA0180819091A80C891B9AEF980F72
:1006E00090834881445066EF680F08E028E088E076
:1006F00091E043DFF70180818A3018F528818091ED
:10070000AF0C9091B00C289FA001299F500D11248F
:100710009A01A1E9BAE90E94890D9695879592956B
:1007200082958F7089279F70892765E3689F900164
:10073000699F300D1124421B530B4C5F88E7808367
:100740004883DF91CF910F91FF90EF9008950F9321
:10075000CF93DF931092AD0CCEE6D1E0E0D4C9D5B3
:1007600008E028E04AE06C2F88E091E006DFC55001
:1007700042EF5BE065E083E030D54DEF5BE065E0A4
:1007800084E02BD545E05CE063E087E026D528E0F7
:1007900046E36DE080E391E0F0DE8091AD0C8111E5
:1007A00006C02EE14EE168E188E15BD607C08130EA
:1007B00029F42EE146E268E180E253D62FEF8FEF75
:1007C00098E0215080409040E1F700C00000809107
:1007D000B30C9091B40C8431910560F41092AD0C7F
:1007E0002FEF8FEF98E0215080409040E1F700C05C
:1007F00000000DC0C39758F0D093AD0C2FEF8FEFD2
:1008000098E0215080409040E1F700C0000084E073
:100810001CD49C0136952795A5E2B9E40E94890D68
:10082000969587959093B40C8093B30C8091AD0C02
:10083000823009F093CF20E840E460E080E011D6F8
:100840002FEF8FEF98E0215080409040E1F700C0FB
:1008500000004FD564D400E420E840E060E088E385
:1008600091E08BDE2FEF8FE793E4215080409040A2
:10087000E1F700C0000053D43CD545E15CE060E006
:1008800083E0ABD42FEF8FE790E72150804090407A
:10089000E1F700C000004BE25CE060E084E09DD442
:1008A0002FEF8FE790E7215080409040E1F700C0A4
:1008B0000000DF91CF910F910895EF92FF920F9377
:1008C000CF93DF931092AA0C1092A90C0F2EF1EB8C
:1008D000EF2EFCE0FF2EF02DCFE0D0E020D409D5A4
:1008E0002CE647E162E180E19ED5F7012081220FED
:1008F000822F880F880F880F280F47E162E180E17F
:10090000B0D54BE35CE063E081E067D46BE081E06D
:1009100021D48091A90C9091AA0C9E01281B390B1F
:10092000C901DED68091B10C9091B20C039740F4CE
:1009300008E028E046E269E380E091E01EDE07C0BF
:1009400000E120E14EE167E380E191E016DE3FEF58
:100950008FE796E1315080409040E1F700C0000001
:100960008091B10C9091B20C0697A9F08091A90CDE
:100970009091AA0C0F9778F443E45CE061E087E083
:100980002CD4EFEFFFE72DE0E150F0402040E1F7FD
:1009900000C00000A3CFC3D3ACD42091B10C3091E0
:1009A000B20C2330310508F03CC020E840E460E0A0
:1009B00080E057D53FEF8FEF9CE231508040904070
:1009C000E1F700C00000ABD394D4EFEFFFE724E0E1
:1009D000E150F0402040E1F700C0000047E55CE056
:1009E00060E083E0FAD33FEF8FEF99E5315080402C
:1009F0009040E1F700C000004DE65CE060E084E07C
:100A0000ECD3EFEFFFEF26E8E150F0402040E1F7B4
:100A100000C0000084D31092A50C85E08093AD0C3B
:100A20003FC0C901969587958093AE0CC4E1C29FE3
:100A3000A001C39F500D11242091A00C3091A10C56
:100A4000240F351F3093A10C2093A00C40E85CE0EC
:100A500064E083E0C2D36BE083E07CD38091B10C8F
:100A60009091B20CFC01CE9FC001CF9F900D11243C
:100A700037D649E85CE064E084E0AFD36DE084E021
:100A800069D38091AE0C09D683E08093AD0CFFEF63
:100A90002FE733E4F15020403040E1F700C0000080
:100AA000DF91CF910F91FF90EF900895EF92FF9219
:100AB0000F931F93CF93DF93EC017B0180E2FB0147
:100AC000808380E3888310E214D429D38881825004
:100AD000888344E1612F80E4F4D412504881485067
:100AE000F7016081685000E120E180E191E045DD9F
:100AF00020E840E460E08CE3B4D4FFEF2FE784E02B
:100B0000F15020408040E1F700C000008881803231
:100B1000D8F6DF91CF911F910F91FF90EF9008953C
:100B2000EF92FF920F931F93CF93DF934091380979
:100B3000509139092091A60C3091A70C2417350744
:100B400008F414C17B01EC0188818F3100F5E7D2F4
:100B5000D0D3488182E0840F88834650F7016081BA
:100B6000685000E120E180E191E007DD20E840E409
:100B700060E08CE376D4FFEF2FE332E0F1502040C9
:100B80003040E1F700C0000088818F3100F3888198
:100B90008E3100F1C4D2ADD348818EEF840F8883AB
:100BA0004A50F7016081685000E120E180E191E066
:100BB000E4DC20E840E460E08CE353D4FFEF2FE373
:100BC00032E0F15020403040E1F700C00000888161
:100BD0008E3100F7F70180818C3008F4C5C09FD2B8
:100BE00088D3F70160818CEF860F8083488148505D
:100BF0006C5000E120E180E191E0BFDC20E840E4BE
:100C000060E08CE32ED4FFEF2FE332E0F150204080
:100C10003040E1F700C00000F70180818C30F8F629
:100C2000A3C07DD266D348814850F70160816850E7
:100C300000E120E180E191E0A0DC44E1612F80E46B
:100C400040D4125020E840E460E08CE30AD4FFEF87
:100C50002FEF38E0F15020403040E1F700C00000B5
:100C60001836F9F6F701808190E08135910544F559
:100C700056D23FD3F70180818C5F808344E168E6E0
:100C800080E41FD448814850F7016081685000E13A
:100C900020E180E191E071DC20E840E460E08CE359
:100CA000E0D3FFEF2FE332E0F15020403040E1F796
:100CB00000C00000F701808190E081359105C4F209
:100CC0008881823340F52BD214D3F70180818E5F67
:100CD000808388818E5F888344E168E680E4F1D375
:100CE00048814850F7016081685000E120E180E1CF
:100CF00091E043DC20E840E460E08CE3B2D3FFEF16
:100D00002FE734E0F15020403040E1F700C0000010
:100D100088818233C0F21092A40C2091AE0C809195
:100D2000A00C9091A10CE2E32E9F800D911D112447
:100D30009093A10C8093A00C8091A80C833069F053
:100D400082E08093AD0CFFEF2FE733E4F1502040B9
:100D50003040E1F700C0000009C081E08093A50C9D
:100D600085E08093AD0C02C010E85BCFDF91CF919E
:100D70001F910F91FF90EF9008950F931F93CF93C2
:100D8000DF938C01EB0183E060D19C0136952795C0
:100D9000A5E2B9E4BED6969587959093B60C80935C
:100DA000B50C84E052D19C0136952795A5E2B9E4B3
:100DB000B0D6969587959093B40C8093B30C209100
:100DC000B50C3091B60C2431310550F42881822FB6
:100DD00090E00B968038910564F52D5F288329C03B
:100DE0002333310558F08881282F30E02B5031090A
:100DF00012161306F4F4835088831BC083339105C5
:100E000058F0F8012081822F90E00B9680349105F4
:100E100084F42D5F20830DC0449758F4F80180813D
:100E2000282F30E02B5031091216130614F483508A
:100E30008083F801408148506881685000E120E1DA
:100E400080E191E09ADBFFEF2FE784E0F150204052
:100E50008040E1F700C00000DF91CF911F910F911A
:100E60000895CF93DF93CDB7DEB728970FB6F894E8
:100E7000DEBF0FBECDBFE2D051DA27D93DDAECEBB1
:100E8000FCE01082118212821F82188648D131D272
:100E900000E420E840E060E088E395E06EDB2FEFBF
:100EA0008FEF93EB215080409040E1F700C00000AD
:100EB0001092AD0C88248394912CFE0131963F0151
:100EC0003E2E472C0F2EFCEBAF2EFCE0BF2EF02D5C
:100ED0000F2EF8E72F2EF02D22D10BD28091AD0CE2
:100EE000823091F018F4882339F09EC08330D9F015
:100EF000853009F489C098C02ADC1092A80C1092A1
:100F0000A10C1092A00C90C09092B20C8092B10CE7
:100F10001092B00C1092AF0C08DACFDC1092BB0C20
:100F20001092BA0C81C08091A40C81111EC0BE0128
:100F3000685F7F4FCE010796B9DDF1E0F093A40C16
:100F40001092A70C1092A60CF50110821182128249
:100F50001092BB0C1092BA0C2982FEE0FA832B820D
:100F600021E32C832D828FE18E8341E95CE060E0F8
:100F700080E033D166E080E0EDD08091A00C9091CC
:100F8000A10CAED348E95CE06CE080E026D162E1E0
:100F900080E0E0D08091AE0C80D37301032D142D3E
:100FA000C12CD12C512CB8016F5F7F4F252DA8018A
:100FB000C60173DB539498E2C90ED11C0E5F1F4F1C
:100FC000E3E05E12F0CF20E840E460E08CE349D239
:100FD000BE01685F7F4FCE010796CFDE10E0212F64
:100FE000A701BE01685F7F4FCE01079670DA1F5FD1
:100FF000F2E0EF0EF11C133091F7BE01685F7F4FF6
:10100000CE0107968DDD10C0D9D9F501108211826D
:101010001282FFEF2FEF83EBF15020408040E1F789
:1010200000C000001092AD0C9FEFEFE7F4E091508C
:10103000E040F040E1F700C000004ECF16B817B80E
:1010400080E888B983EC86B9089593EC96B98064FA
:1010500087B9369A349BFECF24B185B116B890E09B
:10106000982F8827820F911D08951D9A91E39A95D4
:10107000F1F700001C981E981F9A8BBB81E38A959C
:10108000F1F700001D9808951D9A91E39A95F1F7E4
:1010900000001C981E9A1F988BBB81E38A95F1F77C
:1010A00000001D9808951D9A91E39A95F1F70000AC
:1010B0001C981E9A1F9A8BBB81E38A95F1F700005A
:1010C0001D9808951D9A91E39A95F1F700001C9AD6
:1010D0001E981F9A8BBB81E38A95F1F700001D983B
:1010E00008951D9A91E39A95F1F700001C9A1E9AB3
:1010F0001F988BBB81E38A95F1F700001D98089536
:101100001D9A91E39A95F1F700001C9A1E9A1F9A76
:101110008BBB81E38A95F1F700001D980895CF936A
:10112000DF93D8EB8D2FBFDF80E4BDDFC0E480E02C
:10113000E7DFC150E1F7DF5FD03CA1F7DF91CF914E
:1011400008958FE3B0DF80ECAEDF88EBACDF80E4A6
:10115000AACF08958093BF0C6093C2108854A3DF78
:101160008091C2108A3038F4982F990F890F880F18
:101170008C5B7BCF089590E00A97982F990F890F89
:10118000880F805C81CF08951F93CF93DF9390E009
:10119000EC01CC0FDD1FCC0FDD1F8C0F9D1FEC0170
:1011A000C656D74F15E08091C2108A3018F4888156
:1011B00089DF02C0888195DF115021961111F3CF8C
:1011C0008091C2108A3018F480E07CDF02C080E099
:1011D00088DFDF91CF911F910895CF93DF93EA01CC
:1011E0008093BF0C6093C210B5DF8881882381F0A3
:1011F0008091C2108A3011F480E446DF8991C4DF07
:101200008091C2108F5F8093C21088818111F0CFCE
:10121000DF91CF910895CF93C62F885444DFC03417
:1012200020F480E48C0F21DF02C08C2F2DDFCF91C2
:101230000895EF92FF920F931F93CF93803408F09D
:1012400052C066230CF44FC0282F2695269526956C
:10125000982F977071F0913071F0923071F0933057
:1012600071F0943071F0953071F0963071F090E833
:101270000DC091E00BC092E009C094E007C098E077
:1012800005C090E103C090E201C090E4C62FE62EB5
:10129000F12C022F10E0F70180E8289FE00DF11DEE
:1012A0001124EE53F34F8081892B8083822FB3DF8B
:1012B000C03468F4F801F695FE2FEE27F795E79510
:1012C000EE0DFF1DEE53F34F8081FCDE0CC0F801E4
:1012D000F695FE2FEE27F795E795EE0DFF1DEE53E1
:1012E000F34F8081FEDECF911F910F91FF90EF9021
:1012F0000895E2ECFCE022EC30E108C01192E8171E
:10130000F907E1F7FC018217930721F0CF0180581C
:101310009F4FF4CF08958F929F92AF92BF92CF923A
:10132000DF92EF92FF920F931F93CF93DF93621799
:1013300009F447C0621718F570E0022F10E0061795
:1013400017070CF463C0C82FD0E0C42ED12CCC1AE0
:10135000DD0A4B01E12CF12C5801A61AB70AC7018E
:10136000B501C4D3862F682D8C0F63DF8FEF881AE9
:10137000980AEC0CFD1C081519058CF747C070E0A5
:10138000022F10E0601771070CF440C0C82FD0E0A6
:101390005E01A41AB1084B01E12CF12C6801C61AB8
:1013A000D70AC701B601A2D3862F682D8C0F41DF63
:1013B00081E0881A9108EA0CFB1C801691068CF7D4
:1013C00025C0841711F1841780F4C82FD0E0E42ED3
:1013D000F12CEC16FD06D4F0162F612F8C2F29DF8F
:1013E0002196EC16FD06CCF711C0C82FD0E0E42EF4
:1013F000F12CCE15DF0554F0162F612F8C2F19DF3D
:101400002197CE15DF05CCF701C013DFDF91CF9117
:101410001F910F91FF90EF90DF90CF90BF90AF9012
:101420009F908F9008950F931F93CF93DF93C82FB2
:10143000062F142FD22F482F6EDF2D2F412F602F14
:10144000812F69DF202F412F602F8C2F64DF2D2FFC
:10145000412F6D2F8C2F5FDFDF91CF911F910F9167
:101460000895AF92BF92CF92DF92EF92FF920F93C7
:101470001F93CF93DF93082F10E0C42ED12CC016FA
:10148000D106A4F0A62EB12CE22EF12CE501EA142F
:10149000FB043CF06C2F802FCCDE2196EC16FD0671
:1014A000CCF70F5F1F4FC016D10684F7DF91CF91A5
:1014B0001F910F91FF90EF90DF90CF90BF90AF9072
:1014C00008952F923F924F925F926F927F928F92E8
:1014D0009F92AF92BF92CF92DF92EF92FF920F93C3
:1014E0001F93CF93DF93CDB7DEB727970FB6F8944E
:1014F000DEBF0FBECDBF8D83E62EF12C242F30E052
:101500003C832B838901000F111F020F131FC80199
:1015100095958795959587959A838983F701E81B1B
:10152000F90BFF83EE836C01CE0CDF1CCE16DF06B9
:101530000CF439C0229F3001239F700C700C1124D1
:101540008C012701FD812F2E8E819F8184199509A1
:10155000089F4001099F900C189F900C1124860C45
:10156000971C092C000CAA08BB08C501B401C7D1FF
:1015700056D220E030E040E05FE32FD192D1A62E9A
:101580006E81822D8A0D55DE6E81822D8A1951DE83
:101590002E813F812F5F3F4F3F832E8301501109E2
:1015A000C216D3068CF63D81C32ED12C160189813B
:1015B0009A81281A390AC80ED91EC214D3040CF411
:1015C00039C0EB81FC81EE9F3001EF9F700C700CF5
:1015D00011248C01432E512CC10184199509089FB7
:1015E0004001099F900C189F900C1124860C971CA9
:1015F000092C000CAA08BB08C501B40180D10FD288
:1016000020E030E040E05FE3E8D04BD1A62EB12CE3
:10161000B7016A0D7B1D822D0CDEB7016A197B09AB
:10162000822D07DEFFEF2F1A3F0A01501109C21465
:10163000D30494F627960FB6F894DEBF0FBECDBF45
:10164000DF91CF911F910F91FF90EF90DF90CF909E
:10165000BF90AF909F908F907F906F905F904F90D2
:101660003F902F9008959DEC899F912D1124969580
:1016700096959695990F292F220F220F920F891B6D
:10168000982F31F4611104C080E27EDD80E008957E
:1016900080E3890F79DD81E00895CF93DF93C9E27C
:1016A0008C9FC12D1124C295CF7094E6C99F8019DB
:1016B0001124C82FDDEC8D9FD12D1124D695D69500
:1016C000D69560E08D2FCFDFDD0F8D2F880F880F2F
:1016D000D80F8C2F8D1B805D57DDDF91CF91089542
:1016E0000F931F93CF93DF93AC019C01329522950A
:1016F0002F7023273F702327A7E4B3E00AD2EC0121
:10170000D695C795D695C795D695C79520E137E26A
:10171000C29FC001C39F900DD29F900D1124EA017A
:10172000C81BD90B9E01369527953695279536957A
:101730002795A5ECB0E2EDD18C01129502950F70C2
:1017400001271F70012760E0802F8DDF482F28EED2
:1017500033E0029FC001039F900D129F900D112452
:10176000C81BD90B9E013695279536952795ABE773
:10177000B4E1CFD18C0116950795642F802F73DFCC
:10178000482F24E6209FC001219F900D1124C81BE3
:10179000D90B9E01ADECBCECBCD18C011695079524
:1017A0001695079516950795642F802F5CDFC80165
:1017B000880F991F000F111F000F111F000F111F1D
:1017C000080F191FCE01801B910B805DDDDCDF91BE
:1017D000CF911F910F9108955058BB27AA270ED083
:1017E000E0C0D1D030F0D6D020F031F49F3F11F4DA
:1017F0001EF4C6C00EF4E095E7FBBCC0E92FE2D0B2
:1018000080F3BA17620773078407950718F071F41D
:101810009EF5FAC00EF4E0950B2EBA2FA02D0B0109
:10182000B90190010C01CA01A0011124FF27591B25
:1018300099F0593F50F4503E68F11A16F040A22F2B
:10184000232F342F4427585FF3CF4695379527959C
:10185000A795F0405395C9F77EF41F16BA0B620B9B
:10186000730B840BBAF09150A1F0FF0FBB1F661FE2
:10187000771F881FC2F70EC0BA0F621F731F841F25
:1018800048F4879577956795B795F7959E3F08F04B
:10189000B3CF9395880F08F09927EE0F979587950A
:1018A000089598D088F09F5790F0B92F9927B75195
:1018B000A0F0D1F0660F771F881F991F1AF0BA9514
:1018C000C9F712C0B13081F09FD0B1E008959CC03B
:1018D000672F782F8827B85F39F0B93FCCF386950A
:1018E00077956795B395D9F73EF490958095709567
:1018F00061957F4F8F4F9F4F0895E89409C097FBE4
:101900003EF490958095709561957F4F8F4F9F4FD6
:101910009923A9F0F92F96E9BB279395F69587951A
:1019200077956795B795F111F8CFFAF4BB0F11F4DD
:1019300060FF1BC06F5F7F4F8F4F9F4F16C0882384
:1019400011F096E911C0772321F09EE8872F762FBA
:1019500005C0662371F096E8862F70E060E02AF0FB
:101960009A95660F771F881FDAF7880F96958795E7
:1019700097F9089597F99F6780E870E060E008950F
:101980009FEF80EC089500240A9416161706180697
:101990000906089500240A94121613061406050673
:1019A0000895092E0394000C11F4882352F0BB0F04
:1019B00040F4BF2B11F460FF04C06F5F7F4F8F4F67
:1019C0009F4F089557FD9058440F551F59F05F3FA2
:1019D00071F04795880F97FB991F61F09F3F79F051
:1019E00087950895121613061406551FF2CF4695D3
:1019F000F1DF08C0161617061806991FF1CF869555
:101A00007105610508940895E894BB276627772738
:101A1000CB0197F9089511F40EF4B2CF3EC0DADF8E
:101A2000D0F39923D9F3CEF39F57550B87FF43D0BB
:101A30000024A0E640EA900180585695979528F436
:101A4000805C660F771F881F20F02617370748072E
:101A500030F4621B730B840B202931294A2BA69585
:101A600017940794202531254A2758F7660F771FCA
:101A7000881F20F026173707480730F4620B730BD6
:101A8000840B200D311D411DA09581F7B901842FD4
:101A90009158880F9695879508959F3F31F0915002
:101AA00020F4879577956795B795880F911D969542
:101AB000879597F9089591505040660F771F881FBA
:101AC000D2F70895AA1BBB1B51E107C0AA1FBB1F79
:101AD000A617B70710F0A61BB70B881F991F5A95BA
:101AE000A9F780959095BC01CD01089597FB072E2D
:101AF00016F4009406D077FD08D0E4DF07FC05D08B
:101B00003EF4909581959F4F0895709561957F4F14
:101B10000895A29FB001B39FC001A39F700D811DC6
:101B20001124911DB29F700D811D1124911D0895E6
:041B3000F894FFCF57
:101B340030307EBA3828286802066EEE7C3C1F00DE
:101B440001F001F001F07FCE7FFE73FE73E003E04D
:101B540003E003FC03FC071C7F1C7F1C601F601F49
:101B640038381BEFD828246C007FFC0000000000EC
:101B74000000000000000000007FFC0000000000E6
:101B84000000000000000000007FFC0000000000D6
:101B94000000000000000000007FFC0000000000C6
:101BA4000000000000000000007FFE0000000000B4
:101BB4000000000000000000003FFC0000000000E6
:101BC40000000000000000001FFFFC0000000000F7
:101BD400000000001E000000FFFFF80000000000ED
:101BE4001FF800007F800000FFFFC000000000001D
:101BF4007FFF8001FFE00000FFFF80000000000382
:101C0400FFFFE001FFF00000FFFF80000000000F75
:101C1400FFFFF803FFF00000FFFF80000000001F3B
:101C2400FFFFFF07FFF000007FFF80000000007F40
:101C3400F07FFFFFFFE000007FFFC000000001FF16
:101C4400801FFFFFFFE000007FFFC000000007FCD3
:101C54000007FFFFFFE000007FFFC00000001FE05F
:101C64000003FFFFFFE000007FFFC00000007F8053
:101C74000007FFFFFF800000FFFF8018001FFE0029
:101C8400000FFFFFFF000000FFFF803E0007FE0083
:101C9400003FFFFFDC000000FFFF803F003FFF002C
:101CA40000FFFFFFC0000000FFFF80FF0003E7000C
:101CB40003FFFFFFC0002000FFFF87FE000EC300EC
:101CC40007FFFFFFC0002400FFFFFFF000198000A2
:101CD4000FFFFFFFE00CF800FFFFFF800003000090
:101CE4003FFFFFEFF007F400FFFFF80000000000E3
:101CF4007FFFFFC7FE07F000FFFC000000000000AC
:101D0400FFFFFF03FFCFF800FFF80000000000030F
:101D1400FFFFFC03FFFFC000FFFC00000000001FEA
:101D2400FFFFF000FFFE0000FFFF00000000007F47
:101D3400FFFFC00000000000FFFFC000000000FF24
:101D4400FFFF800000000000FFFFE000000001FF33
:101D5400FFFF800000000000FFFFF000000003FF11
:101D6400FFFFF80000000000FFFFFC00000003FF7D
:101D7400FFFFFFE000000000FFFFFE00000003FF84
:101D8400FFFFFFFC00000000FFFFFE00000007FF54
:101D9400FFFFFFFF80000000FFFFFF00000007FFC0
:101DA400FFFFFFFFE0000000FCFFFFC0000007FF93
:101DB400FFFFFFFFF8000000F87FFFE000000FFFC7
:101DC400FFFFFFFFF8000000F003FFF000001FFF1B
:101DD400FFFFFFFFF8000000E000FFF800003FFFF6
:101DE400FFFFFFFFF8000000C0003FF800007FFF86
:101DF400F01FFF8FF000000080000FF80000FFFFCD
:101E0400C000F007F0000000000007F80001FFFE2A
:101E14000000000FF0000000000007F803F3FFF8D3
:101E24000000000FF0000000000007F87FFFFFE053
:101E34000000000FF0000000000003FFFFFFFF8020
:101E44000000000FE0000000000FFFFFFFFFFC0098
:101E54000000000FE0000000001FFFFFFFFFF00084
:101E64000000000FE0000000000FFFFF80000000F2
:101E74000000000FE0000000000FFFFC0000000065
:101E84000000000FE0000000000FFCFC0000000058
:101E94000000000FE0000000000FE0FE0000000062
:101EA4000000000FE0000000000FC07E00000000F2
:101EB4000000000FC0000000000FC03F0000000041
:101EC4000000000FC0000000000FC03F0000000031
:101ED4000000000FC00000000007801F8000000009
:101EE4000000000FE00000000003801F80000000DD
:101EF4000000000FF00000000001001FC0000000FF
:101F04000000001FFC0000000000000FF0000000B3
:101F14000000001FFFFE00000000000FFC00000096
:101F24000000003FFFFF00000000001FFF00000052
:101F34000000007FFFFE00000000001FFFFF000004
:101F44000000007FFFF800000000003FFFFF80005A
:101F54000000007FFE0000000000003FFFFF0000C3
:101F64000000003E0000000000000000000000002F
:101F7400000000000000000000000000000000005D
:101F8400000000000000000000000000000000004D
:101F9400000000000000000000000000000000003D
:101FA400000000000000000000000000000000002D
:101FB400000000000000000000000000000000001D
:101FC400000000000000000000000000000000000D
:101FD40000000000000000000000000000000000FD
:101FE40000000000000000000000000000000000ED
:101FF40000000000000000000000000000000000DD
:1020040000000000000000000000000000000000CC
:1020140000000000000000000000000000000000BC
:1020240000000000000000000000000000000000AC
:10203400000000000000000000000000000000009C
:10204400000000000000000000000000000FEE3F50
:10205400FDFFFF000000000000000000002002045B
:10206400000100800000000000000000000FF20CDE
:10207400F33F1E000000000000000000004FF24C7F
:10208400F33F9E4000000000000000000040624C4E
:10209400E3019C400000000000000000007E224894
:1020A400073F80C00000000000000000007E66487A
:1020B400FF3F8E40000000000000000001DE668843
:1020C400FF3FCF2000000000000000000100400896
:1020D400FF004F9000000000000000000101E01824
:1020E400FF004790000000000000000001FFFFFF18
:1020F400FFFFFFF0000000000000001FFFFFFFFFD4
:10210400FFFFFFF3C1E000000000002008F98F8CFE
:1021140003807806212000000000000018F10F0C55
:1021240001801003031000000000007F19F107086C
:10213400F08F10F1138000000000007F11F10608F9
:10214400F88F98F88B0800000000007E31E3060841
:10215400F88F88F8C30800000000003E23E204085A
:10216400F88F18FCF00800000000003C63E22188AE
:1021740000C0787C7C1000000000003C47C231881D
:1021840000C01C7C3E100000000003F8C786330822
:1021940003C78C7E3F100000000008F887C4330892
:1021A400FFC7C47E3F100000000011D18F847F1848
:1021B400FFC7C41E1F000000000010E1078C7F1839
:1021C400FFC7863E1F8800000000200300087F1818
:1021D400FFC002000F8000000000200700187F18D5
:1021E400FF4007000FC400000000200F0038EF1864
:1021F400FF4007801FC2000000001FFFFFFFEFFF2A
:10220400FE7FFFFFF7FE000000001FFFFFFFEFFF50
:10221400FC7FFFFFE7FE000000001FFFFFFFE1FF60
:10222400807FFFFFE3FC000000000FFFFFFFE1FFE2
:10223400807FFFFFE3FC000000000FFFFFFFC1FFF2
:10224400807FFFFFC3FC0000000007FF3FFFC1FFCA
:10225400807FFBFFC1F80000000007FE3FFFC1FFC5
:10226400807FF3FFC1F80000000001F80FC7C0FF32
:10227400807FC07F00F0000000000000000000002C
:10228400000000000000000000000000000000004A
:10229400000000000000000000000000000000003A
:1022A400000000000000000000000000000000002A
:1022B400000000000000000000000000000000001A
:1022C400000000000000000000000000000000000A
:1022D40000000000000000000000000000000000FA
:1022E40000000000000000000000000000000000EA
:1022F40000000000000000000000000000000000DA
:1023040000000000000000000000000000000000C9
:1023140000000000000000000000000000000000B9
:1023240000000000000000000000000000000000A9
:102334000000000000000000000000000000000099
:102344000000000000000000000000000000000089
:102354000000000000000000000000000000000079
:102364000000000000000000300200000000000037
:10237400004F00000007000700147F147F14242A74
:102384007F2A12231308646236495522500005033C
:102394000000001C2241000041221C0014083E08D9
:1023A4001408083E0808005030000008080808080F
:1023B400006060000020100804023E5149453E00C0
:1023C400427F400042615149462141454B31181436
:1023D400127F1027454545393C4A49493001710966
:1023E40005033649494936064949291E003636004F
:1023F400000056360000081422410014141414146A
:1024040000412214080201510906324979413E7EF5
:102414001111117E7F494949363E414141227F4194
:1024240041221C7F494949417F090909013E41492B
:10243400497A7F0808087F00417F41002040413FDE
:10244400017F081422417F404040407F020C027FFC
:102454007F0408107F3E4141413E7F090909063E41
:102464004151215E7F091929462649494932010112
:102474007F01013F4040403F1F2040201F3F403824
:10248400403F631408146307087008076151494505
:1024940043007F41410002040810200041417F00B5
:1024A40004020102044040404040000102040020B4
:1024B400545454787F48444438384444442038447D
:1024C40044487F3854545418087E0901020C52526F
:1024D400523E7F0804047800047D00002040443DFF
:1024E400007F1028440000417F40007C0418047CD5
:1024F4007C0804047838444444387C1414140808D0
:102504001414187C7C080404084854545420043FD0
:102514004440203C4040207C1C2040201C3C403057
:10252400403C44281028440C5050503C4464544CC3
:1025340044000836410000007700000041360800DE
:102544000804081008494E484120554E49562E00AB
:102554004D502046696E616C2070726F6A656374B9
:10256400005041524B2D494E4B59550031323132B6
:10257400313438340043484F4F2D4B594F4A554E50
:102584004700313231313136383400323031362E71
:102594002031322E2031392E00416C6C2072696753
:1025A400687420726573657276656400535441479C
:1025B40045004D61782073636F7265203A200043B3
:1025C40075722073636F7265203A200047414D4550
:1025D400204F56455200434C4541522100537570DB
:1025E4006572204A756D7020626F7900737563633C
:1025F4006573736C7920657363617065642100434E
:10260400484F4F2058205041524B00323031362E23
:102614002031322E203139005448414E4B20594F3D
:10262400550047414D4520535441525400435245AF
:10263400444954200043686F6F204E204B79752025
:10264400323031360054686520626F792069732016
:10265400696E2064616E676572210048656C702044
:1026640068696D206573636170650074696D6520C8
:102674003A2000507573682050443120666F7220F0
:10268400706F7765722100506F77657220697320CF
:102694006E6F7420656E6F7567682E2E004F7572AD
:1026A40020426F7920636174636865642E2E2E0066
:1026B40053434F5245202B20004C49464520202BA4
:1026C4000053434F524520004C494645202A2000E0
:00000001FF
